:100000000C94E3230C9414240C9414240C941424C2
:100010000C9414240C9414240C9414240C94142480
:100020000C9414240C9414240C9414240C94142470
:100030000C9414240C9414240C9414240C94142460
:100040000C9414240C9414240C9414240C94142450
:100050000C9414240C9414240C9414240C9487955C
:100060000C9414240C94EC980C9422990C94142461
:100070000C9414240C9414240C9414240C94142420
:100080000C9414240C9414240C9414240C94142410
:100090000C9414240C9414240C9414240C94142400
:1000A0000C9414240C9414240C9414240C941424F0
:1000B0000C9414240C9414240C9414240C941424E0
:1000C0000C9414240C9414240C9414240C941424D0
:1000D0000C9414240C9414240C9414240C941424C0
:1000E0000C941424B7414F41B741C541C541B741B4
:1000F000E14163414F4171417F41B7419141964197
:10010000C541B741A441C541B741C5419641D3411D
:10011000B741E1417141F4410942DD43FB432244CF
:100120009444944494443844C544DD43C5445B44FA
:10013000C5446944694486448644224494449444B2
:1001400022446944C5449444AB44C544C544C544B1
:100150003B459D468047EE47F948F9488B4AC94BD5
:10016000D650D64C2F4E9B4E63523C5317551755C5
:1001700080471756175680470F54725777493B5898
:100180000959105B355AAA96AD969C96A096A696EC
:10019000E496B196B596BB96BF96C396C996CD9692
:1001A000D196E496D796DB96DF9605A84CCDB2D4CF
:1001B0004EB93836A9020C50B9918688083CA6AAD7
:1001C000AA2ABE000000803F7C3C3E5E2B3D3F2FB4
:1001D0005B5D3B2C2A225C00080C205F00000000C5
:1001E000000000000000000000002020202020204F
:1001F0000020000000285050000000000000000017
:1002000000002828FC2850FC50500000002078A84E
:10021000A0603028A8F02000000048A8B050283482
:1002200054480000000020505078A8A8906C0000AE
:1002300000404080000000000000000000040810A2
:1002400010101010100804000040201010101010A2
:100250001020400000000020A87070A820000000BE
:100260000000202020F820202000000000000000D6
:1002700000000000004040800000000000F8000086
:10028000000000000000000000000000004000002E
:1002900000081010102020404040800000007088AE
:1002A0008888888888700000000020602020202036
:1002B00020700000000070888810204080F8000046
:1002C00000007088083008088870000000001030B6
:1002D00050509078101800000000F88080F0080856
:1002E000887000000000709080F08888887000009E
:1002F0000000F890102020202020000000007088CE
:100300008870888888700000000070888888780865
:1003100048700000000000002000000000200000E5
:100320000000000000200000002020000004081051
:10033000204020100804000000000000F80000F831
:1003400000000000004020100804081020400000B9
:1003500000007088881020200020000000007088B5
:1003600098A8A8B88078000000002020305050786D
:1003700048CC00000000F0484870484848F00000B1
:100380000000788880808080887000000000F0483D
:100390004848484848F000000000F8485070504075
:1003A00048F800000000F8485070504040E000005D
:1003B0000000384880809C88483000000000CC480D
:1003C0004878484848CC00000000F8202020202031
:1003D00020F8000000007C10101010101090E000B9
:1003E0000000EC485060505048EC00000000E04035
:1003F0004040404044FC00000000D8D8D8D8A8A80D
:10040000A8A800000000DC486868585848E80000C8
:100410000000708888888888887000000000F04894
:100420004870404040E0000000007088888888E8FC
:10043000987018000000F0484870504848EC0000E0
:10044000000078888060100888F000000000F8A89C
:1004500020202020207000000000CC484848484858
:10046000483000000000CC484850503020200000A8
:100470000000A8A8A8705050505000000000D850AC
:100480005020205050D800000000D850502020208C
:10049000207000000000F8901020204048F8000074
:1004A000003820202020202020203800004040401C
:1004B00020201010100800000070101010101010F4
:1004C000101070000020500000000000000000002C
:1004D0000000000000000000000000FC0020000000
:1004E000000000000000000000000000003048385C
:1004F000483C00000000C040407048484870000080
:100500000000000000384840403800000000180893
:1005100008384848483C0000000000000030487897
:100520004038000000001C202078202020780000A7
:1005300000000000003C4830407844380000C040D3
:100540004070484848EC0000000020000060202077
:10055000207000000000100000301010101010E09B
:100560000000C040405C507048EC00000000E020FB
:100570002020202020F800000000000000F0A8A8A3
:10058000A8A800000000000000F0484848EC000067
:100590000000000000304848483000000000000023
:1005A00000F04848487040E000000000003848482B
:1005B0004838081C0000000000D8604040E00000FF
:1005C00000000000007840300878000000000020A3
:1005D00020702020201800000000000000D84848AB
:1005E000483C00000000000000EC485030200000B3
:1005F0000000000000A8A87050500000000000009B
:1006000000D8502050D800000000000000EC4850F6
:10061000302020C00000000000781020207800006A
:1006200000181010102010101010180010101010CA
:10063000101010101010101000602020201020202A
:100640002020600040A4180000000000000000000E
:100650001010205F000000000000000000000000FB
:10066000000000000000000000000000000000008A
:10067000000000000000000003000300030003006E
:100680000300030003000300030000000300030055
:1006900000000000000000000660066006600660C2
:1006A000000000000000000000000000000000004A
:1006B00000000000000000000360036006C03FF07F
:1006C0003FF006C00D803FF03FF00D801B001B0087
:1006D0000000000000000100038007C00D600D0055
:1006E0000F00078003C001E00D600D6007C00380AC
:1006F00001000000000000003C18663066306660B3
:1007000066C03CC0019E01B30333033306330C1EA5
:10071000000000000000000007C00FE00C600C604B
:1007200007C007800D9019D818F018780FFC0788BB
:1007300000000000000000000180018001800180B5
:1007400000000000000000000000000000000000A9
:100750000000000000000180030003000600060006
:1007600006000600060006000600030003000180E4
:10077000000000000000060003000300018001806B
:1007800001800180018001800180030003000600D8
:100790000000000000000000000000000380038053
:1007A00033983FF807C007C00EE01C7004400000FB
:1007B000000000000000000000000000000000C079
:1007C00000C000C007F807F800C000C000C000006B
:1007D0000000000000000000000000000000000019
:1007E0000000000000000000030003000100010001
:1007F00002000000000000000000000000000000F7
:100800000000000003E003E0000000000000000022
:1008100000000000000000000000000000000000D8
:1008200000000000000000000000030003000000C2
:1008300000000000000000000060006000C000C078
:1008400000C000C00180018001800180030003001E
:10085000000000000000000003C007E00E700C3034
:100860000C300C300C300C300C300E7007E003C034
:1008700000000000000000000180038007800D8060
:100880000980018001800180018001800180018058
:10089000000000000000000003C007E00E300C3034
:1008A0000030006000E001C0038006000FF00FF090
:1008B000000000000000000003E007F00E300030F0
:1008C00001E001E0007000300C300E7007E003C062
:1008D0000000000000000000006000E000E001E017
:1008E0000360036006600C600FF00FF000600060B2
:1008F000000000000000000007E007E006000C0018
:100900000FC00FE00C7000300C300E7007E003C019
:10091000000000000000000003E007F006300C00BB
:100920000DC00FE00E700C300C30063007E003C035
:1009300000000000000000000FF00FF0006000C099
:1009400000C00180018001800380030003000300D8
:10095000000000000000000003C007E00C300C3075
:100960000C3007E007E00C300C300C3007E003C01F
:10097000000000000000000003C007E00C600C3025
:100980000C300E7007F003B000300C600FE007C0B1
:100990000000000000000000000001800180000055
:1009A0000000000000000000018001800000000045
:1009B0000000000000000000000001800180000035
:1009C0000000000000000000018001800080008025
:1009D000010000000000000000000000002000E016
:1009E00003C00F001C000F0003C000E00020000047
:1009F0000000000000000000000000001FF01FF0D9
:100A0000000000001FF01FF00000000000000000C8
:100A100000000000000000000000000008000E00C0
:100A2000078001E0007001E007800E000800000070
:100A3000000000000000000003C007E00E300C3092
:100A4000007000E001C00180018000000180018091
:100A500000000000000007C00C30137817E82CC815
:100A60002CC82CC82FD026E01008081007E0000082
:100A700000000000000000000380038006C006C0E4
:100A800006C00C600C600FE01FF0183018303018F2
:100A900000000000000000001FE01FF018301830B8
:100AA00018301FE01FF01818181818181FF01FE052
:100AB000000000000000000003E00FF00C381C10E4
:100AC00018001800180018001C100C380FF003E074
:100AD00000000000000000001FC01FF018301818B0
:100AE0001818181818181818181818301FF01FC0E0
:100AF00000000000000000000FF80FF80C000C00D0
:100B00000C000FF80FF80C000C000C000FF80FF899
:100B100000000000000000000FF00FF00C000C00BF
:100B20000C000FE00FE00C000C000C000C000C009F
:100B3000000000000000000007E01FF01838381027
:100B40003000300030F830F8381818381FF807E057
:100B500000000000000000001818181818181818D5
:100B600018181FF81FF81818181818181818181837
:100B70000000000000000000018001800180018071
:100B8000018001800180018001800180018001805D
:100B90000000000000000000003000300030003095
:100BA00000300030003000300C300E7007E003C021
:100BB000000000000000000018181830186018C06D
:100BC00019801BC01EC01C60187018301818181827
:100BD00000000000000000000C000C000C000C00E5
:100BE0000C000C000C000C000C000C000FF00FF0BF
:100BF0000000000000000000383838383C783C78AD
:100C0000345836D836D836D8339833983398311884
:100C1000000000000000000018181C181E181E1804
:100C20001B181998199818D818781878183818189F
:100C3000000000000000000007C01FF0183030184E
:100C40003018301830183018301818301FF007C01E
:100C500000000000000000000FE00FF00C380C183E
:100C60000C380FF00FE00C000C000C000C000C0016
:100C7000000000000000000007C01FF0183030180E
:100C8000301830183018301831B818F01FF007B08D
:100C900000180000000000001FE01FF018381818AE
:100CA00018381FF01FC018E0187018301838181CBA
:100CB000000000000000000003E007F00E380C18F0
:100CC0000F0007E001F000380C180E3807F003E0C1
:100CD00000000000000000001FF81FF801800180E4
:100CE00001800180018001800180018001800180FC
:100CF0000000000000000000181818181818181834
:100D0000181818181818181818181C380FF007E0B9
:100D100000000000000000003018183018301830B3
:100D20000C600C600EE006C006C0038003800380E8
:100D3000000000000000000031C631C631C61B6C47
:100D40001B6C1B6C1B6C1B6C0E380E380E380E386F
:100D5000000000000000000018301C700C6006C08D
:100D600007C00380038007C006C00C601C701830E9
:100D7000000000000000000018181C380C3006604D
:100D8000066003C001800180018001800180018034
:100D9000000000000000000007F807F800300060C5
:100DA00000E000C001800380030006000FF80FF888
:100DB00000000000000003C003C0030003000300A4
:100DC000030003000300030003000300030003C04B
:100DD00003C0000000000000030003000180018048
:100DE0000180018000C000C000C000C00060006041
:100DF00000000000000003C003C000C000C000C02D
:100E000000C000C000C000C000C000C000C003C0DF
:100E100003C000000000018003C003C0066006603C
:100E200006600C3000000000000000000000000020
:100E300000000000000000000000000000000000B2
:100E40000000000000000000000000000000FFFFA4
:100E5000FFFF000000000000018000C00000000053
:100E60000000000000000000000000000000000082
:100E700000000000000000000000000007C00FE0BC
:100E80000C6001E007E00E600C600FE007B00000AE
:100E90000000000000000C000C000C000DC00FE072
:100EA0000E700C300C300C300E700FE00DC00000D6
:100EB00000000000000000000000000003C007E088
:100EC0000E600C000C000C000E6007E003C0000078
:100ED00000000000000000300030003003B007F0D8
:100EE0000E700C300C300C300E7007F003B00000A8
:100EF000000000000000000000000000038007C0A8
:100F00000C600FE00FE00C000E6007C003800000D3
:100F100000000000000003C007C006000F800F8023
:100F20000600060006000600060006000600000097
:100F30000000000000000000000007600FE01CE05F
:100F40001860186018601CE00FE0076018601FE070
:100F50000FC0000000000C000C000C000DE00FF0B2
:100F60000E300C300C300C300C300C300C300000DB
:100F700000000000000000000180018000000180EE
:100F800001800180018001800180018001800000DA
:100F900000000000000000000180018000000180CE
:100FA0000180018001800180018001800180018039
:100FB0000780070000000C000C000C000C600CC047
:100FC0000D800F800FC00EC00CC00C600C600000C4
:100FD000000000000000018001800180018001808C
:100FE000018001800180018001800180018000007A
:100FF00000000000000000000000000037383FFC47
:1010000039CC318C318C318C318C318C318C00006D
:101010000000000000000000000000000DE00FF0E4
:101020000E300C300C300C300C300C300C3000001A
:1010300000000000000000000000000003C007E006
:101040000E700C300C300C300E7007E003C0000046
:101050000000000000000000000000000DC00FE0D4
:101060000E700C300C300C300E700FE00DC00C0008
:101070000C000C00000000000000000003B007F0AE
:101080000E700C300C300C300E7007F003B00030D6
:10109000003000300000000000000000037003F08A
:1010A00003800300030003000300030003000000AB
:1010B00000000000000000000000000007C00FE07A
:1010C0000C600F0007C000E00C600FE007C00000DC
:1010D00000000000000001000300030007C007C07B
:1010E0000300030003000300030003C001C000006D
:1010F0000000000000000000000000000C300C3078
:101100000C300C300C300C300C700FF007B00000BD
:101110000000000000000000000000000630063063
:10112000063003600360036001C001C001C000001D
:1011300000000000000000000000000031C631C6C1
:1011400019CC1B6C1B6C1B6C0E380E380E38000053
:1011500000000000000000000000000006300770E2
:10116000036001C001C001C00360077006300000C9
:101170000000000000000000000000000C180C1827
:10118000063006300360036003E001C001C0018047
:1011900007800700000000000000000003F803F8CB
:1011A0000030007000E001C0018003F803F8000087
:1011B0000000000001C003C003000300030003009F
:1011C0000E000E000300030003000300030003C031
:1011D00001C0000001800180018001800180018048
:1011E00001800180018001800180018001800180F7
:1011F00001800180038003C000C000C000C000C0A7
:101200000070007000C000C000C000C000C003C07B
:10121000038000000000000007880FF808F00000BD
:1012200000000000000000000000000000000000BE
:10123000000000002020205F0000000000000000EF
:10124000000000000000000000000000000000009E
:10125000000000000000000000000000000000008E
:10126000000000000000000000000000000000007E
:10127000000000000000000000000000000000006E
:10128000000000000000000000000000000000005E
:10129000000000000000000000000000000000004E
:1012A000000000000000000000000000000000003E
:1012B000000000000000000000000000000000002E
:1012C000000000000003C0000003C0000003C000D5
:1012D0000003C0000003C0000003C0000003C00002
:1012E0000003C0000FFFFFF00FFFFFF00FFFFFF044
:1012F0000FFFFFF00003C0000003C0000003C000A8
:101300000003C0000003C0000003C0000003C000D1
:101310000003C00000000000000000000FFFFFF00D
:101320000FFFFFF00FFFFFF00FFFFFF000000000C6
:1013300000000000000000000000000000000000AD
:10134000000000000007E038003FFC78007FFEF856
:1013500001F81FF003E007E0038007C007000FE07B
:101360000F001FF00E003E700E007C701C00F8385D
:101370001C01F0381C03E0381C07C0381C0F8038F3
:101380001C1F00380E3E00700E7C00700FF800F03D
:1013900007F000E003E001C007E007C00FF81F807E
:1013A0001F7FFE001E3FFC001C07E0000000000045
:1013B000000000000000000000000000000000002D
:1013C000000000000000000000000000000000001D
:1013D000000000000000000000000000000000000D
:1013E00000000000000000000000000000000000FD
:1013F00000000000000000000000000000000000ED
:1014000000000000000000000000000000000000DC
:10141000000000000F03C0F00F03C0F00F03C0F086
:101420000F03C0F00F03C0F00F03C0F00000000076
:1014300000000000000000000000000000000000AC
:10144000000000000F0040001F00E0001981E000D4
:101450001981C0001983C00019838000198780009A
:1014600019870000198F0000198E00000F1C000062
:101470000F1C000000380000003800000071E1E09F
:1014800000F3E3E000E3333001E3333001C33330F2
:1014900003C33330038333300783333007033330E0
:1014A0000F0333300E01E1E00401E1E00000000031
:1014B000000000000000000000000000000000002C
:1014C00000000000000000000000060000F007001F
:1014D00001F80F00030C1E00030C1C00030C3C0061
:1014E000030C3800030C7000030CF00001F8E0005E
:1014F00000F1E0000003C00000038000000780004E
:10150000000F1E00000E3F00001E6180001C618065
:1015100000386180007861800070618000F0618037
:1015200001E03F0001C01E0000800000000000003C
:1015300000000000000000000000000000000000AB
:10154000000000000000000000000000000000009B
:101550000000000000000000000000000007E000A4
:10156000000FF000001C1800001818000000180000
:10157000000018000007F800000FF800001818001D
:10158000001818000018180000183800000FF800A4
:101590000007D8000000000000000000000000006C
:1015A000000000000000000000000000000000003B
:1015B000000000000000000000000000000000002B
:1015C000000000000000000000000000000000001B
:1015D0000000000000000000000000000007800084
:1015E000000FC000001CE000001870000000700038
:1015F0000000E0000001C0000003800000070000C0
:10160000000E0000001C000000180000001FF00089
:10161000001FF000000000000000000000000000BB
:1016200000000000000000000000000000000000BA
:1016300000000000000000000000000000000000AA
:10164000000000000000000000000000000000009A
:101650000000000000000000000000000003E000A7
:101660000007F000000E3800000C18000000180001
:10167000000018000000F0000000F000000018005A
:1016800000001800000C1800000E38000007F000E1
:101690000003E00000000000000000000000000067
:1016A000000000000000000000000000000000003A
:1016B000000000000000000000000000000000002A
:1016C000000000000003C0000003C0000003C000D1
:1016D0000003C0000003C0000003C00003FFFFC000
:1016E00003FFFFC003FFFFC003FFFFC00003C000F4
:1016F0000003C0000003C0000003C0000003C000DE
:101700000003C00003FFFFC003FFFFC003FFFFC0D3
:1017100003FFFFC00003C0000003C0000003C000BF
:101720000003C0000003C0000003C0000000000070
:1017300000000000000000000000000000000000A9
:1017400000000000000000000003C0000007E000EF
:1017500000066000000660000006600000066000F1
:101760000007E0000003C0000000000000000000CF
:101770000FFFFFF00FFFFFF00FFFFFF00FFFFFF075
:1017800000000000000000000003C0000007E000AF
:1017900000066000000660000006600000066000B1
:1017A0000007E0000003C00000000000000000008F
:1017B0000000000000000000000000000000000029
:1017C0000000000000003FF000007FF0000060001B
:1017D00000006000000060000000E0000000C000A9
:1017E0000000C0000001C0000F0180000F818000D8
:1017F00001838000018300000183000000C300001A
:1018000000C7000000C6000000C60000006E000017
:10181000006C0000006C0000006C0000003800004C
:101820000038000000380000003800000000000010
:1018300000000000000000000000000000000000A8
:101840000000000003C003C003C003C001E0078024
:1018500000E0070000F00F0000700E0000781E008E
:1018600000381C00003C3C00001C3800000E7000DA
:1018700001FE7F8001FFFF8001FFFF800007E00085
:101880000003C0000003C00001FFFF8001FFFF80D4
:1018900001FFFF800003C0000003C0000003C00080
:1018A0000003C0000003C0000003C0000003C0002C
:1018B0000000000000000000000000000000000028
:1018C000000000000007F000000FF800001E1C00E0
:1018D000003C0C0000380C0000380000001C000028
:1018E000000F0000000FC000001FF000003878005B
:1018F00000303C0000301E0000380E00003C0E009E
:10190000001E0E00000F1C000007F8000001F80088
:1019100000007C0000001E0000180E0000180E00E1
:10192000001C3C00000FF8000007F0000000000061
:1019300000000000000000000000000000000000A7
:101940000000000000000000000000000000000097
:101950000000000000000000000000000000000087
:101960000000000000000000000000000003C000B4
:101970000007E0000007E0000007E0000007E000CB
:101980000003C00000000000000000000000000094
:101990000000000000000000000000000000000047
:1019A0000000000000000000000000000000000037
:1019B0000000000000000000000000000000000027
:1019C0000000E0000000E0000000E000000FFE006A
:1019D000003FFF00007FFF8000F0E3C000E0E1C0B7
:1019E00001C0E1C00180E0000380E0000380E0006E
:1019F0000380E0000380E0000380E0000380E0005B
:101A00000380E00001C0E00001C0E1C000E0E1C0EF
:101A100000F0E3C0007FFF80003FFF00000FFE00EA
:101A20000000E0000000E0000000E0000000000016
:101A300000000000000000000000000000000000A6
:101A4000000FF000003FFC0000FFFF0001FFFF80DF
:101A500003F80FC007F007E00FE3E3F00FE7F3F040
:101A60001FC7F1F81FC7F1F81FC7F1F83FC7F1FC16
:101A70003FC7F1FC3FC7F1FC3FC7F1FC3FC7F1FC9A
:101A80003FC7F1FC1FC7F1F81FC7F1F81FC7F1F8F6
:101A90000FE7F3F00FF3E3F007F007E003F80FC0F0
:101AA00001FFFF8000FFFF00003FFC00000FF0007F
:101AB0000000000000000000000000000000000026
:101AC000000FF000003FFC0000FFFF0001FFFF805F
:101AD00003F83FC007F03FE00FE03FF00FC03FF0DA
:101AE0001FC03FF81FFC3FF81FFC3FF83FFC3FFCC6
:101AF0003FFC3FFC3FFC3FFC3FFC3FFC3FFC3FFC0E
:101B00003FFC3FFC1FFC3FF81FFC3FF81FFC3FF869
:101B10000F8001F00F8001F0078001E0038001C019
:101B200001FFFF8000FFFF00003FFC00000FF000FE
:101B300000000000000000000000000000000000A5
:101B4000000FF000003FFC0000FFFF0001FFFF80DE
:101B500003F01FC007E00FE00FC007F00FC7C3F08E
:101B60001FCFE3F81FCFF3F81FFFF3F83FFFF3FC9D
:101B70003FFFE3FC3FFFC7FC3FFF8FFC3FFF1FFC25
:101B80003FFE3FFC1FFC7FF81FF8FFF81FF1FFF836
:101B90000FE3FFF00FC003F007C003E003C003C072
:101BA00001FFFF8000FFFF00003FFC00000FF0007E
:101BB0000000000000000000000000000000000025
:101BC000000FF000003FFC0000FFFF0001FC3F8021
:101BD00003F00FC007E007E00FE3C3F00FE7F1F0F9
:101BE0001FFFF1F81FFFF1F81FFFF1F83FFFE3FCC3
:101BF0003FFE07FC3FFE07FC3FFE03FC3FFFE1FC0E
:101C00003FFFF1FC1FFFF1F81FFFF1F81FFFF1F894
:101C10000FE7F1F00FE3C3F007E007E003F00FC0B8
:101C200001FC1F8000FFFF00003FFC00000FF000E0
:101C300000000000000000000000000000000000A4
:101C4000000FF000003FFC0000FFFF0001FFFF80DD
:101C500003FF8FC007FF0FE00FFE0FF00FFC0FF028
:101C60001FF80FF81FF08FF81FE18FF83FC38FFCAC
:101C70003F878FFC3F0F8FFC3F1F8FFC3F1F8FFC68
:101C80003F1F8FFC1F0001F81F0001F81F0001F823
:101C90000FFF8FF00FFF8FF007FF8FE003FF8FC064
:101CA00001FFFF8000FFFF00003FFC00000FF0007D
:101CB0000000000000000000000000000000000024
:101CC000000FF000003FFC0000FFFF0001FFFF805D
:101CD00003C003C007C003E00FC003F00FC7FFF04D
:101CE0001FC7FFF81FC7FFF81FC7FFF83FC00FFC53
:101CF0003FC007FC3FE003FC3FFFC3FC3FFFE3FCAA
:101D00003FFFE3FC1FFFE3F81FC7E3F81FC7E3F83B
:101D10000FC3C3F00FC003F007E007E003F00FC0EC
:101D200001FFFF8000FFFF00003FFC00000FF000FC
:101D300000000000000000000000000000000000A3
:101D4000000FF000003FFC0000FFFF0001F80F80D3
:101D500003F007C007E003E00FC7E3F00FCFF1F097
:101D60001F8FF1F81F8FFFF81F8FFFF83F880FFCC0
:101D70003F8007FC3F83C3FC3F87E3FC3F8FF1FCC0
:101D80003F8FF1FC1F8FF1F81F8FF1F81F8FF1F8D3
:101D90000FC7E1F00FC3C3F007E007E003F00FC087
:101DA00001FFFF8000FFFF00003FFC00000FF0007C
:101DB0000000000000000000000000000000000023
:101DC000000FF000003FFC0000FFFF0001FFFF805C
:101DD00003FFFFC007C001E00FC001F00FC001F01A
:101DE0001FFFF1F81FFFE1F81FFFE3F83FFFC7FCFB
:101DF0003FFFC7FC3FFF8FFC3FFF8FFC3FFF1FFCF7
:101E00003FFF1FFC1FFF3FF81FFE3FF81FFE3FF87C
:101E10000FFC7FF00FFC7FF007F8FFE003F8FFC036
:101E200001F8FF8000FFFF00003FFC00000FF00002
:101E300000000000000000000000000000000000A2
:101E4000000FF000003FFC0000FFFF0001F01F80CA
:101E500003E00FC007C387E00F87C3F00F8FE3F0E5
:101E60001F8FE3F81F8FE3F81F8FE3F83FC7C7FC0E
:101E70003FC38FFC3FF01FFC3FE00FFC3FC387FCDC
:101E80003F87C3FC1F8FE3F81F8FE3F81F8FE3F832
:101E90000F8FE3F00F87C3F007C387E003E00FC0A5
:101EA00001F01F8000FFFF00003FFC00000FF0006A
:101EB0000000000000000000000000000000000022
:101EC000000FF000003FFC0000FFFF0001FFFF805B
:101ED00003F81FC007F00FE00FE3C7F00FC7E3F0F0
:101EE0001FCFF1F81FCFF1F81FCFF1F83FCFF1FC72
:101EF0003FCFF1FC3FC7E1FC3FE3C1FC3FF001FCF9
:101F00003FF811FC1FFFF1F81FFFF1F81FCFF1F8A8
:101F10000FCFE3F00FC7C7F007E00FE003F01FC0DB
:101F200001FFFF8000FFFF00003FFC00000FF000FA
:101F300000000000000000000000000000000000A1
:101F4000000000000000000000000000001FFFFE75
:101F5000003FFFFF007FFFFF00FFFFFF01FFDF7F6C
:101F600003FF8E3F07FF041F0FFE000F1FFF001F20
:101F70003FFF803F7FFFC07F7FFF803F3FFF001F0D
:101F80001FFE000F0FFF041F07FF8E3F03FFDF7FC1
:101F900001FFFFFF00FFFFFF007FFFFF003FFFFE8D
:101FA0000000000000000000000000000000000031
:101FB0000000000000000000000000000000000021
:101FC000000000000007E000003FFC00007FFE0072
:101FD00001F81F8003E007C0038001C0070000E094
:101FE0000F0000F00E0000700E0000701C000038A2
:101FF0001C0000381C0000381C0000381C00003891
:102000001C0000380E0000700E0000700F0000F081
:10201000070000E0038001C003E007C001F81F8053
:10202000007FFE00003FFC000007E0000000000011
:1020300000000000000000000000000000000000A0
:10204000000000001FFFFFF81FFFFFF819FFFF98B7
:1020500019FFFF98198001981980019819FFFF98BE
:1020600019FFFF98198001981980019819FFFF98AE
:1020700019FFFF9818000018180000181800001821
:1020800018000018187FFE18187FFE181867FE1831
:102090001867FE181867FE181867FE181867FE18EC
:1020A000187FFE181FFFFFF81FFFFFF80000000059
:1020B0000000000000000000000000000000000020
:1020C00000000000000180000003C0000003C00009
:1020D0000007E0000007E000000E7000000E700036
:1020E000001C3800001C380000381C0000381C00A0
:1020F00000700E0000700E0000E0070000E0070016
:1021000001C0038001C00380038001C0038001C0BF
:10211000070000E0070000E00E0000700E000070F5
:102120001FFFFFF83FFFFFFC3FFFFFFC0000000028
:10213000000000000000000000000000000000009F
:10214000000000003FFFFFFC3FFFFFFC1FFFFFF808
:102150000E0000700E000070070000E0070000E0B5
:10216000038001C0038001C001C0038001C003805F
:1021700000E0070000E0070000700E0000700E0095
:1021800000381C0000381C00001C3800001C3800FF
:10219000000E7000000E70000007E0000007E00075
:1021A0000003C0000003C000000180000000000028
:1021B000000000000000000000000000000000001F
:1021C0000000001800000038000000F8000003F8CC
:1021D00000000FF800003F380000FC380003F03822
:1021E000000FC038003F003800FC003803F0003812
:1021F0000FC000381F0000381F0000380FC0003823
:1022000003F0003800FC0038003F0038000FC038F1
:102210000003F0380000FC3800003F3800000FF8E1
:10222000000003F8000000F800000038000000186B
:10223000000000000000000000000000000000009E
:10224000180000001C0000001F0000001FC000005C
:102250001FF000001CFC00001C3F00001C0FC00011
:102260001C03F0001C00FC001C003F001C000FC001
:102270001C0003F01C0000F81C0000F81C0003F018
:102280001C000FC01C003F001C00FC001C03F000E1
:102290001C0FC0001C3F00001CFC00001FF00000D1
:1022A0001FC000001F0000001C00000018000000FC
:1022B000000000000000000000000000000000001E
:1022C00000000000000000000FFFFFF00FFFFFF014
:1022D0000C0000300DC003B00DE007B00DF00FB0E2
:1022E0000CF81F300C7C3E300C3E7C300C1E7830DD
:1022F0000C0FF0300C03C0300C03C0300C0FF0306A
:102300000C1E78300C3E7C300C7C3E300CF81F30BC
:102310000DF00FB00DE007B00DC003B00C000030A1
:102320000FFFFFF00FFFFFF00000000000000000B3
:10233000000000000000000000000000000000009D
:1023400000000000000000000FFFFFF00FFFFFF093
:102350000C0000300C0001B00C0003300C00063003
:102360000C000E300C001C300C0018300C00383003
:102370000C0070300C00E0300C01C0300C01C0309B
:102380000CC380300DE380300CE700300C77003058
:102390000C3E00300C1E00300C0C00300C000030E5
:1023A0000FFFFFF00FFFFFF0000000000000000033
:1023B000000000000000000000000000000000001D
:1023C000000000000000000000000000000000000D
:1023D000000000003FFFFFFC3FFFFFFC3E00007CD1
:1023E000370000EC338001CC31C0038C30E0070CA7
:1023F00030700E0C30381C0C303C3C0C307E7E0CA7
:1024000030E7E70C31C3C38C338181CC370000EC5B
:102410003E00007C3FFFFFFC3FFFFFFC0000000090
:1024200000000000000000000000000000000000AC
:10243000000000000000000000000000000000009C
:1024400000000000000000000FFFFFF00FFFFFF092
:102450000FFFFFF00E0000700E0000700E00007005
:102460000E0000700E0000700E0000700E00007074
:102470000E0000700E0000700E0000700E00007064
:102480000E0000700E0000700E0000700E00007054
:102490000E0000700E0000700E0000700FFFFFF0C5
:1024A0000FFFFFF00FFFFFF0000000000000000032
:1024B000000000000000000000000000000000001C
:1024C00000000000000FFE00003FFF00007FFF80C3
:1024D00000F003C000E001C001C001C001800000A5
:1024E000038000003FFFF0003FFFF0003FFFF000DF
:1024F0000380000003800000038000001FFF8000B5
:102500001FFF80001FFF8000038000000380000089
:1025100001C0000001C001C000E001C000F003C024
:10252000007FFF80003FFF00000FFE000000000062
:10253000000000000000000000000000000000009B
:1025400000003FF000007FE000007FC00000FF803F
:102550000001FF000003FE000003FC000007F8007C
:10256000000FF000000FE000001FC000001FE0009F
:10257000000FF0000007F8000003FC000001FE005F
:102580000003FC000007F000000FE000001F8000C7
:10259000003F0000007E000000F8000001F0000095
:1025A00003C00000078000000E0000000C000000C7
:1025B000000000000000000000000000000000001B
:1025C000000000000060006000E000E001E000C0EA
:1025D00003E00180036003800060070000600600E4
:1025E00000600C0000601C000060380000603000DB
:1025F0000060600003FCE18003FDC3800001878070
:1026000000030F8000070D80000E1980000C318040
:10261000001871800038618000707FE000607FE00A
:1026200000C0018001800180018001800000000065
:10263000000000000000000000000000000000009A
:102640000000000000C000C001C001C003C0018044
:1026500007C0030006C0070000C00E0000C00C0049
:1026600000C0180000C0380000C0700000C060004A
:1026700000C0C00007F9C78007FB8FC000031CE043
:1026800000061870000E0070001C00E0001801C069
:10269000003003800070070000E00E0000C01C0046
:1026A0000180180003001FF003001FF0000000006D
:1026B000000000000000000000000000000000001A
:1026C0000000000000F8006001FC00E0038E00C084
:1026D000030601800006038000060700003C060098
:1026E000003C0C0000061C00000638000306300009
:1026F000038E600001FCE18000F9C3800001878047
:1027000000030F8000070D80000E1980000C31803F
:10271000001871800038618000707FE000607FE009
:1027200000C0018001800180018001800000000064
:102730000000000000000000000000000000000099
:102740000000000000000000000000000001C000C8
:102750000003E0000003E0000001C00000000000F2
:10276000000000000001C0000001C0000001C00026
:102770000001C0000001C00000038000000700004D
:10278000000E0000001C0000001C0000001C0000E7
:10279000001C0C00001C0C00000E1C000007F800C0
:1027A0000003F00000000000000000000000000036
:1027B0000000000000000000000000000000000019
:1027C00000000000000E0000001F0300003F870013
:1027D0000079CF0000F0FE0000E07C0000C038006F
:1027E000000000000000000000F3F80000F7FC000B
:1027F00000FFFE0000FE1F0000FC0F0000F80F00AD
:1028000000F00F0000F00F0000F00F0000F00F00CC
:1028100000F00F0000F00F0000F00F0000F00F00BC
:1028200000F00F0000F00F0000F00F0000000000AB
:102830000000000000000000000000000000000098
:10284000001FF800007FFE0001E00780038001C048
:10285000070000E00E0000700C00003018781E1811
:1028600018FC3F1830CC330C30CC330C30CC330C4C
:1028700030CC330C30FC3F0C30781E0C3000000C98
:102880003000000C3180018C31C0038C18F00F181F
:10289000187FFE180C1FF8300C0000300600006096
:1028A000078001E001E00780007FFE00001FF800C4
:1028B0000000000000000000000000000000000018
:1028C000001FF800007FFE0001E00780038001C0C8
:1028D000070000E00E0000700C00003018781E1891
:1028E00018FC3F1830CC330C30CC330C30CC330CCC
:1028F00030CC330C30FC3F0C30781E0C3000000C18
:102900003000000C301FF80C307FFE0C18F00F1850
:1029100019C003980D8001B00C0000300600006063
:10292000078001E001E00780007FFE00001FF80043
:102930000000000000000000000000000000000097
:10294000001FF800007FFE0001E00780038001C047
:10295000070000E00E0000700C00003018781E1810
:1029600018FC3F1830CC330C30CC330C30CC330C4B
:1029700030CC330C30FC3F0C30781E0C3000000C97
:102980003000000C3000000C31FFFF8C19FFFF9865
:10299000180000180C0000300C0000300600006029
:1029A000078001E001E00780007FFE00001FF800C3
:1029B0000000000000000000000000000000000017
:1029C0000007F000000FFC00001FFE00003FFF00AA
:1029D000007FFF80007FFF80007FFF800073F38017
:1029E0000061E1800061E18000733380003F3F00BF
:1029F000001FFE00000FFC0001E6D9E001E6D9E06F
:102A000000E001C003F007F003FC1FF0003F7F80EF
:102A1000001FF8000007E000000FC800001F9C0026
:102A200001FE3FC001F80FC00070070000F00780F2
:102A300000F007800000000000000000000000001F
:102A4000000000000007E0000007E0000007E000D1
:102A50000007E0000007E0000007E0000007E000DA
:102A60000007E0000407E0200607E0600707E0E059
:102A70000787E1E007C7E3E007E7E7E007F7EFE0F4
:102A800007FFFFE007FFFFE003FFFFC001FFFF803C
:102A900000FFFF00007FFE00003FFC00001FF80069
:102AA000000FF0000007E0000003C00000018000FC
:102AB0000000000000000000000000000000000016
:102AC000000180000003C0000007E000000FF000DC
:102AD000001FF800003FFC00007FFE0000FFFF0029
:102AE00001FFFF8003FFFFC007FFFFE007FFFFE0DC
:102AF00007F7EFE007E7E7E007C7E3E00787E1E074
:102B00000707E0E00607E0600407E0200007E000B8
:102B10000007E0000007E0000007E0000007E00019
:102B20000007E0000007E0000007E00000000000F0
:102B30000000000000000000000000000000000095
:102B4000000000000000000000000000000FF8007E
:102B5000001FF000003FE000007FC00000FF800089
:102B600001FF000003FE000007FC00000FFFFFF85C
:102B70001FFFFFF83FFFFFF83FFFFFF81FFFFFF8C1
:102B80000FFFFFF807FC000003FE000001FF00003C
:102B900000FF8000007FC000003FE000001FF00049
:102BA000000FF8000000000000000000000000001E
:102BB0000000000000000000000000000000000015
:102BC000000000000000000000000000001FF000F6
:102BD000000FF8000007FC000003FE000001FF00EA
:102BE0000000FF8000007FC000003FE01FFFFFF0FB
:102BF0001FFFFFF81FFFFFFC1FFFFFFC1FFFFFF879
:102C00001FFFFFF000003FE000007FC00000FF80DA
:102C10000001FF000003FE000007FC00000FF800A9
:102C2000001FF00000000000000000000000000095
:102C30000000000000000000000000000000000094
:102C40000000000000000000000000100000006014
:102C5000000000C0000001C0000003800000070069
:102C600000000E0000001C00000038000000700092
:102C70000000E0000001C0000003800000038000AD
:102C800000070000000E0000060C0000071C0000FA
:102C900007B8000003F8000003F0000001E00000A6
:102CA00000E0000000400000000000000000000004
:102CB0000000000000000000000000000000000014
:102CC0000000000000000000000FF000001FF800EE
:102CD000003FFC00007FFE0000F00F0001E00780D5
:102CE00003C003C003C003C003C003C003C003C0CC
:102CF00003C003C003C083C003C0C00003C0E00022
:102D000003E0F00001F0F80000FFFC00007FFE008F
:102D1000003FFE00001FFC000000F8000000F00073
:102D20000000E0000000C000000080000000000083
:102D30000000000000000000000000000000000093
:102D400000000000000080000000C0000000E00063
:102D50000000F0000000F800001FFC00003FFE0033
:102D6000007FFE0000FFFC0001F0F80003E0F0002F
:102D700003C0E00003C0C00003C083C003C003C0A1
:102D800003C003C003C003C003C003C003C003C02B
:102D900001E0078000F00F00007FFE00003FFC0014
:102DA000001FF800000FF00000000000000000000D
:102DB0000000000000000000000000000000000013
:102DC00000000000000000000000000000F00F0004
:102DD00001F81F8003FC3FC007FE7FE00FFFFFF0FC
:102DE0001FFFFFF81FFFFFF81FFFFFF81FFFFFF88F
:102DF0000FFFFFF007FFFFE003FFFFC001FFFF80B1
:102E000000FFFF00007FFE00003FFC00001FF800F5
:102E1000000FF0000007E0000003C0000001800088
:102E200000000000000000000000000000000000A2
:102E30000000000000000000000000000000000092
:102E4000001FF800007FFE0001FFFF8003C003C0E9
:102E5000078001E00F07F0F00E0FF8701C1FFC3820
:102E6000183C1E1838780E1C38700E1C3870001C68
:102E70003870001C3870001C3870001C3870001C42
:102E80003870001C38700E1C38780E1C183C1E1848
:102E90001C1FFC380E0FF8700F07F0F0078001E0E0
:102EA00003C003C001FFFF80007FFE00001FF80089
:102EB0000000000000000000000000000000000012
:102EC000001FF800007FFE0001FFFF8003C003C069
:102ED000078001E00F0FC0F00E1FE0701C1FF038DC
:102EE000181C7818381C381C381C381C381C381C26
:102EF000381C781C381FF01C381FE01C381FF01CD1
:102F0000381C781C381C381C381C381C181C381805
:102F10001C1C38380E1C38700F1C38F0078001E07C
:102F200003C003C001FFFF80007FFE00001FF80008
:102F30000000000000000000000000000000000091
:102F40000000000000000000000000000007E0009A
:102F5000003FFC00007FFE0001FFFF8003F00FC078
:102F600003C003C0078001E0078001E00F0000F00C
:102F70000F0000F00F0000F00F0000F00F0000F055
:102F80000F0000F0078001E0078001E003C003C0EC
:102F900003F00F8001F81F80007C3E000FFC3FF023
:102FA0000FFC3FF00FFC3FF00000000000000000AD
:102FB0000000000000000000000000000000000011
:102FC0003FFFFFF03FFFFFF83000000C3007C00C60
:102FD000300FE00C301FF00C301FF00C301FF00CE5
:102FE000300FE00C3007C00C3000000C301FE00C3C
:102FF000301FE00C301FE00C3007E00C3007E00C15
:103000003007E00C3007E00C3007E00C3007E00C34
:103010003007E00C30FFFF0C30FFFF0C30FFFF0CDF
:1030200030FFFF0C3000000C3FFFFFF83FFFFFF0C8
:103030000000000000000000000000000000000090
:103040000000000000000000000000000000000080
:10305000000000000007C000000FE000001FF000AB
:10306000003C78000038380000383800003838005C
:10307000003C7800001FF000000FE0000007C000D7
:103080000000000000000000000000000000000040
:103090000000000000000000000000000000000030
:1030A0000000000000000000000000000000000020
:1030B0000000000000000000000000000000000010
:1030C000000000000003FE000007FF00000FFF806B
:1030D000001FFF80003F0780003E0780003C00008B
:1030E000003C0000003C0000003C0000003C0000F0
:1030F000003C000001FFF00001FFF00001FFF000C4
:1031000001FFF000003C0000003C0000003C00001B
:10311000003C0000003C0000003C000007FFFFC036
:1031200007FFFFC007FFFFC007FFFFC00000000050
:10313000000000000000000000000000000000008F
:103140000000000000780780007807800078078082
:103150000078078000780780007807800078078073
:103160000078078000780780007807800078078063
:10317000007807800078078000780780007C0F8047
:10318000007E1F80007FFFE0007FFBE0007BF1E01E
:103190000079E0E0007800000078000003F800000B
:1031A00003F0000003E0000003C000000000000086
:1031B000000000000000000000000000000000000F
:1031C0000000000000000080000000C0000000E0DF
:1031D000000000F03F801FF83FC03FFC3FE07FFC55
:1031E0003FF0FFF800F1F0F00073E0E00007C0C02E
:1031F000000F8080001F0000003E0000007C608007
:1032000000F8F0C001F0F8E003E07CF03FC03FF8C8
:103210003F801FFC3F000FFC3E0007F8000000F05D
:10322000000000E0000000C000000080000000007E
:10323000000000000000000000000000000000008E
:10324000000000000000000000000000000000007E
:10325000000180000003C0000007E000000FF00044
:10326000001FF800003FFC00007FFE0000FFFF0091
:1032700001FFFF8003FFFFC007FFFFE00FFFFFF02C
:103280001FFFFFF81FFFFFF81FFFFFF800000000FF
:10329000000000001FFFFFF81FFFFFF81FFFFFF8EF
:1032A0001FFFFFF800000000000000000000000009
:1032B000000000000000000000000000000000000E
:1032C00000000C0000001C0000003C0000007C001E
:1032D0000000FC000001FC000003FC000007FC00F3
:1032E000000FFC00001FFC00003FFC00007FFC0002
:1032F00000FFFC0001FFFC0001FFFC0000FFFC00E0
:10330000007FFC00003FFC00001FFC00000FFC00E1
:103310000007FC000003FC000001FC000000FC00B2
:1033200000007C0000003C0000001C0000000C00BD
:10333000000000000000000000000000000000008D
:103340000030000000380000003C0000003E00009B
:10335000003F0000003F8000003FC000003FE00051
:10336000003FF000003FF800003FFC00003FFE007F
:10337000003FFF00003FFF80003FFF80003FFF0055
:10338000003FFE00003FFC00003FF800003FF0005F
:10339000003FE000003FC000003F8000003F000011
:1033A000003E0000003C000000380000003000003B
:1033B000000000000000000000000000000000000D
:1033C00000000000000000000000000000000000FD
:1033D000000000000000000000000000000180006C
:1033E0000003C0000007E000000FF000001FF8001D
:1033F000003FFC00007FFE0000FFFF0001FFFF8098
:1034000003FFFFC007FFFFE00FFFFFF01FFFFFF804
:103410003FFFFFFC3FFFFFFC00000000000000003A
:10342000000000000000000000000000000000009C
:10343000000000000000000000000000000000008C
:10344000000000000000000000000000000000007C
:103450000000000000000000000000003FFFFFFC33
:103460003FFFFFFC1FFFFFF80FFFFFF007FFFFE02C
:1034700003FFFFC001FFFF8000FFFF00007FFE0091
:10348000003FFC00001FF800000FF0000007E00004
:103490000003C000000180000000000000000000E8
:1034A000000000000000000000000000000000001C
:1034B000000000000000000000000000000000000C
:1034C0000000800800018018000380380007807821
:1034D000000F80F8001F81F8003F83F8007F87F815
:1034E00000FF8FF801FF9FF803FFBFF807FFFFF809
:1034F0000FFFFFF81FFFFFF81FFFFFF80FFFFFF898
:1035000007FFFFF803FFBFF801FF9FF800FF8FF8E8
:10351000007F87F8003F83F8001F81F8000F80F8D4
:1035200000078078000380380001801800008008C0
:10353000000000000000000000000000000000008B
:1035400010010000180180001C01C0001E01E000F5
:103550001F01F0001F81F8001FC1FC001FE1FE00E9
:103560001FF1FF001FF9FF801FFDFFC01FFFFFE0DD
:103570001FFFFFF01FFFFFF81FFFFFF81FFFFFF007
:103580001FFFFFE01FFDFFC01FF9FF801FF1FF00BD
:103590001FE1FE001FC1FC001F81F8001F01F000A9
:1035A0001E01E0001C01C000180180001001000095
:1035B000000000000000000000000000000000000B
:1035C0003800800838018018380380383807807840
:1035D000380F80F8381F81F8383F83F8387F87F834
:1035E00038FF8FF839FF9FF83BFFBFF83FFFFFF828
:1035F0003FFFFFF83FFFFFF83FFFFFF83FFFFFF8F7
:103600003FFFFFF83BFFBFF839FF9FF838FF8FF807
:10361000387F87F8383F83F8381F81F8380F80F8F3
:1036200038078078380380383801801838008008DF
:10363000000000000000000000000000000000008A
:103640001001001C1801801C1C01C01C1E01E01C84
:103650001F01F01C1F81F81C1FC1FC1C1FE1FE1C78
:103660001FF1FF1C1FF9FF9C1FFDFFDC1FFFFFFC6C
:103670001FFFFFFC1FFFFFFC1FFFFFFC1FFFFFFCE6
:103680001FFFFFFC1FFDFFDC1FF9FF9C1FF1FF1C4C
:103690001FE1FE1C1FC1FC1C1F81F81C1F01F01C38
:1036A0001E01E01C1C01C01C1801801C1001001C24
:1036B000000000000000000000000000000000000A
:1036C0000000000000000000007C3E00007C3E0086
:1036D000007C3E00007C3E00007C3E00007C3E0002
:1036E000007C3E00007C3E00007C3E00007C3E00F2
:1036F000007C3E00007C3E00007C3E00007C3E00E2
:10370000007C3E00007C3E00007C3E00007C3E00D1
:10371000007C3E00007C3E00007C3E00007C3E00C1
:10372000007C3E00007C3E00000000000000000025
:103730000000000000000000000000000000000089
:1037400000000000000000000FFFFFF00FFFFFF07F
:103750000FFFFFF00FFFFFF00FFFFFF00FFFFFF075
:103760000FFFFFF00FFFFFF00FFFFFF00FFFFFF065
:103770000FFFFFF00FFFFFF00FFFFFF00FFFFFF055
:103780000FFFFFF00FFFFFF00FFFFFF00FFFFFF045
:103790000FFFFFF00FFFFFF00FFFFFF00FFFFFF035
:1037A0000FFFFFF00FFFFFF000000000000000001F
:1037B0000000000000000000000000000000000009
:1037C000000000000007E000003FFC00007FFE005A
:1037D00001FFFF8003FFFFC003FFFFC007FFFFE003
:1037E0000FFFFFF00FFFFFF00FFFFFF01FFFFFF8CD
:1037F0001FFFFFF81FFFFFF81FFFFFF81FFFFFF875
:103800001FFFFFF80FFFFFF00FFFFFF00FFFFFF0AC
:1038100007FFFFE003FFFFC003FFFFC001FFFF80C2
:10382000007FFE00003FFC000007E00000000000F9
:103830000000000000000000000000000000000088
:103840000003C0000003C0000003C0000003C0006C
:103850000073CE0000F3CF0003F3CFC007F3CFE037
:103860000FC3C3E00F03C0F01E03C0781E03C0786F
:103870003C03C03C3C03C03C3C03C03C3C03C03C5C
:103880003C00003C3C00003C3C0000381E0000783E
:103890001E0000780F0000F007C003E007F00FE003
:1038A00003FFFF8000FFFF00003FFC00000FF0005F
:1038B0000000000000000000000000000000000008
:1038C000001FF800007FFE0001FFFF8003F00FC023
:1038D00007C003E00F0000F00F0000F01E00187892
:1038E0001C0039F83C007FFC3800FFDC387FFF1CEF
:1038F000387FFC1C387FF81C387FF81C387FF81C98
:1039000038FCF81C3BF8781C3FE0383C1F80183826
:103910001E0000780F0000F00F0000F007C003E069
:1039200007F00FE001FFFF80007FFE00001FF8009E
:103930000000000000000000000000000000000087
:103940000000000000000000000000000000000077
:103950000000000000000000000000000000600007
:103960000000E0000001EE000003EF000007E3802C
:1039700001FFE18001FFE18001FFE18001FFE180C3
:1039800001FFE3800003EF000001EE000000E00013
:1039900000006000000000000000000000000000C7
:1039A0000000000000000000000000000000000017
:1039B0000000000000000000000000000000000007
:1039C0000000000000001E0000001F80000001C079
:1039D000000000E00000707000007C30000C0E1849
:1039E000001C0718003DC30C007DE18C00FC718CAD
:1039F0003FFC318C3FFC318C3FFC318C3FFC318CE7
:103A00003FFC718C007DE18C003DC30C001C07184D
:103A1000000C0E1800007C3000007070000000E008
:103A2000000001C000001F8000001E000000000018
:103A30000000000000000000000000000000000086
:103A400000000000000000F800000FF80001FFF87F
:103A5000001FFF18003FF018003F0018003801F861
:103A600000381FF80038FFF8003FFF38003FF038FB
:103A7000003F00380038003800380038003800387F
:103A8000003800380038003800380038003803F8B3
:103A9000003807F803F80FF807F81FF00FF81FE0D9
:103AA0001FF00FC01FE007000FC00000070000005C
:103AB0000000000000000000000000000000000006
:103AC0000000010000000180000001C0000001E0D2
:103AD00000FFFFF001FFFFF803FFFFF807FFFFF013
:103AE0000F8001E01F0001C01E0001801E000100C8
:103AF0001E00000000000000000000000000007830
:103B00000080007801800078038000F8078001F0D1
:103B10000FFFFFE01FFFFFC01FFFFF800FFFFF0031
:103B2000078000000380000001800000008000008A
:103B300000000000000000000000000001FFFF8006
:103B400003FFFFC007FFFFE00FFFFFF01FFFFFF8BD
:103B50003F1C38FC7E1C387E001C38007E3E7C7E7C
:103B60007E7FFE7E7E7FFE7E007FFE00007FFE0069
:103B700000F81F0001E0078003C003C00783C1E015
:103B80000F8FF1F01F1FF8F83F1FF8FC3F1FF8FCE4
:103B90003F1FF8FC7F8FF1FE7F83C1FE7FC003FED5
:103BA0007FE007FE7FF81FFE7FFFFFFE7FFFFFFE27
:103BB00000000000000000000000000000300C00C9
:103BC00000381C00003C3C00003FFC00007FFE0071
:103BD000007FFE0000F81F0001E0078007C003E03F
:103BE0003F8001FC3F0000FC1F03C0F80E07E0709F
:103BF000060FF060060FF060060FF060060FF06031
:103C00000607E0600F03C0F01F0000F83F8001FCD2
:103C10003FC003FC03E007C000F81F00007FFE0068
:103C2000007FFE00003FFC00003C3C0000381C0010
:103C300000300C0000000000000000000000000048
:103C4000000180000003C0000007E000000FF0004A
:103C5000001FF800003FFC00007FFE0000FFFF0097
:103C600001FFFF8003FFFFC007FFFFE00FFFFFF032
:103C70001FFFFFF83FFFFFFC3FFFFFFC1FFFFFF8A8
:103C80000FFFFFF007FFFFE003FFFFC001FFFF8012
:103C900000FFFF00007FFE00003FFC00001FF80057
:103CA000000FF0000007E0000003C00000018000EA
:103CB0000000000000000000000000000000000004
:103CC00000070000000780000007F0000003F0007C
:103CD0000001C0000001E0000001F0000000F80059
:103CE0001000FF001800FF001C00FC001C01FC007D
:103CF0001FFFFFF81FFFFFFC1FFFFFFC1FFFFFF868
:103D00001C01FC001C00FC001800FF001000FF005C
:103D10000000F8000001F0000001E0000001C00018
:103D20000003F0000007F00000078000000700001B
:103D30000000000000000000000000000000000083
:103D40000007E0000007E0000007E0000007E000D7
:103D50000007E00003FFFFC003FFFFC003FFFFC039
:103D600003FFFFC003FFFFC003FFFFC00007E00029
:103D70000007E0000007E0000007E0000007E000A7
:103D80000007E0000007E0000007E0000007E00097
:103D90000007E0000007E0000007E0000007E00087
:103DA0000007E0000007E0000007E0000007E00077
:103DB0000000000000000000000000000000000003
:103DC00000000000000000000000000000000000F3
:103DD000000000003F0000003F0000FC330003F83B
:103DE00033800FE03FC03FC03FE0FC0000F6F8002A
:103DF000003FE000001F8000001F8000003FE00047
:103E000000F6F8003FE07C003FC03FC033800FE089
:103E1000330003F83F0000FC3F00000000000000FA
:103E20000000000000000000000000000000000092
:103E30000000000000000000000000000000000082
:103E4000000000001F0000F81F8001F81FC003F8E9
:103E50001FE007F81FF00FF80FF81FF007FC3FE016
:103E600003FE7FC001FE7F8000FFFF00007FFE0099
:103E7000003FFC00000FF000000FF000003FFC00CE
:103E8000007FFE0000FFFF0001FE7F8003FE7FC079
:103E900007FC3FE00FF81FF01FF00FF81FE007F8D6
:103EA0001FC003F81F8001F81F0000F80000000089
:103EB0000000000000000000000000000001800081
:103EC000000180000003C0000007E0000007E000E0
:103ED000000FF000000FF000001FF800001FF800B6
:103EE0007FFFFFFE3FFFFFFC1FFFFFF80FFFFFF00C
:103EF00007FFFFE003FFFFC001FFFF8000FFFF009F
:103F0000007FFE00007FFE0000FFFF0001FFFF803A
:103F100001FFFF8003FC3FC003F00FC007E007E094
:103F2000078001E0070000E00600006004000020B8
:103F300000000000000000000000000003FFFF8000
:103F400007FFFFC003FFFF800000000003FFFF80AA
:103F500003FFFF8001FFFF0001FFFF0000FFFE00E5
:103F600000F01E0000783C00003C7800001EF000CD
:103F7000000FE0000007C000000FE000001EF0008E
:103F8000003C780000783C0000F01E0001E00F00CB
:103F900001E00F0003FFFF8003FFFF8003FFFF80AE
:103FA0000000000003FFFF8007FFFFC003FFFFC00A
:103FB0000000000000000000000000000000000001
:103FC00000FC000003FF00000FFFC0000F03C00053
:103FD0001E01E0001C00E000380070003800700096
:103FE0003BFF70003BFF700038007000380070002D
:103FF0001C00E0001E01C0000F03E0000FFFF000F6
:1040000003FEF80000FC7C0000003E0000001F00E2
:1040100000000F80000007C0000003E0000001F076
:10402000000000F80000007C0000003C0000001CC4
:104030000000000000000000000000000000000080
:1040400000FC000003FF000007FF80000F03C0001A
:104050001E31E0001C30E000383070003830700055
:104060003BFF70003BFF700038307000383070004C
:104070001C30E0001E31C0000F03E00007FFF0001D
:1040800003FEF80000FC7C0000003E0000001F0062
:1040900000000F80000007C0000003E0000001F0F6
:1040A000000000F80000007C0000003C0000001C44
:1040B0000000000000000000000000000000000000
:1040C0000FFFFFF01FFFFFF83FFFFFFC3000000C69
:1040D000200000040FFC3FF01FFC3FF83FFC3FFCBA
:1040E0003FFC3FFC3FFC3FFC3FFC3FFC3FFC3FFCF8
:1040F0003FFC3FFC3FFC3FFC3FFC3FFC3F8001FCA2
:104100003FC003FC3FE007FC3FF00FFC3FF81FFC03
:104110003FFC3FFC3FFE7FFC3FFFFFFC3FFFFFFCFF
:104120001FFFFFF80FFFFFF007FFFFE00000000098
:10413000000000000000000000000000000000007F
:1041400000000000000FF000000FF000000FF00072
:10415000000FF000000FF000000FF000000FF00063
:10416000000FF000000FF0001FFFFFF81FFFFFF827
:104170001FFFFFF81FFFFFF81FFFFFF81FFFFFF8EB
:104180001FFFFFF8000FF000000FF000000FF0001D
:10419000000FF000000FF000000FF000000FF00023
:1041A000000FF000000FF000000FF0000000000012
:1041B00000000000000000000000000000000000FF
:1041C00000000000000000000000000000000000EF
:1041D00000000000010101010101010101010101D3
:1041E00001020202020202020203030303030303A9
:1041F000040404040405050505060606060707076A
:10420000070808080909090A0A0A0B0B0B0C0C0D10
:104210000D0D0E0E0F0F1010111112121313141496
:104220001515161617181819191A1B1B1C1D1D1EFB
:104230001F202021222323242526272728292A2B33
:104240002C2D2E2F303132323334363738393A3B39
:104250003C3D3E3F40424344454648494A4B4D4E13
:104260004F515253555657595A5C5D5F60626365B2
:104270006668696B6D6E7072737577787A7C7E7F15
:1042800081838587898A8C8E90929496989A9C9E39
:10429000A0A2A4A7A9ABADAFB1B4B6B8BABDBFC117
:1042A000C4C6C8CBCDD0D2D5D7DADCDFE1E4E7E9AC
:1042B000ECEFF1F4F7F9FCFF7DFF9DFFBDFFDDFFA3
:1042C000DDFFDDFFDDF7DDF7DDEFDEEFDEEFDFEF5A
:1042D000DFEFDFEFBFEF9FEF7FEF7FF77FF77FFF2E
:1042E0007FFF7FFF7EFF7EFFFFFF1CFF3CFF7CFF09
:1042F0009CF7DCF7DCF7DCEFDCE7DCE7DCE7DDE7AD
:10430000DEE7DEE79EE77FE73FE71FE71FE71FEFF8
:104310001EF71EFF1EFF1DFF1CFFDFFF79F6D9F6FB
:1043200019F779F7B9F7B9EFB9E7B9DFB9CFBBCF6B
:10433000BCCFBDCFBECF7ECF1ECFDECE7ECE7EDE4B
:104340007EE67EEE7EF67DF67CF67BF69EF755F5F4
:10435000F5F595F615F7B5F7B5E7B5D7B5BFB5AF30
:10436000B7AFBAAFBCAFBEAF1EAF9EAEFEAD5EADD7
:104370005EBD5ED55EE55EF55CF55AF557F53CE74A
:1043800010F4F0F4F0F5D0F6B0F7B0DFB0BFB09FA6
:10439000B087B387B787BB87BE87DE86FE85FE847E
:1043A0001E841E9C1EBC1EDC1EF41BF417F413F4AA
:1043B000DBDECBFA0BFC6BFD8BF6CBF7CBD7CBAFB1
:1043C000CB87CB5FD05FD55FDA5FDE5F9E5E7F5DC0
:1043D0001F5CDF5ADF82DFAADED2DEFADAFAD5FA14
:1043E000D0FAF7BD65F925FBC5FC65FEE5F7E5CF1D
:1043F000E59FE567E52FEC2FF32FF92FFE2F7F2E9A
:10440000DF2C3F2B7F297F617F997FC97EF979F966
:1044100073F96CF934A500F800FA00FCE0FDE0FF48
:10442000E0BFE087E047E007E807F007F707FF078E
:10443000FF051F041F021F001F401F801FB81FF829
:1044400017F810F808F8308400D8C0D9A0DB40DD98
:10445000E0D6E0A6E076E03EE006E706EE06F406EB
:10446000FA065B05BB03DB011B001B381B701BA896
:104470001AD814D80ED807D86D6B20B080B1E0B22E
:1044800040B4A0ADA085A05DA035A005A605AB05F4
:10449000B005B5055604F60296013600363036589A
:1044A000368835B030B02BB026B0CB5A4188418920
:1044B000418A418B4184416C414C412C410C450C5B
:1044C000490C4D0C500C500B510A51095108512800
:1044D0005148516850884D88498845880842416054
:1044E0000161C161615A015B014B013B0123010B79
:1044F000040B070B090B0B0B6B0ACC090C094C08BE
:104500004C204C384B484B604960476044606529FB
:104510004138A13821396139C139C129C121C111BD
:10452000C109C209C409C509C70967092709A7083C
:10453000470847104720472847384538443842380D
:10454000E31841288128C128012941294121411925
:104550004111410942094309440945090509C508B2
:104560008508450845104518452045284428432816
:104570004228A210201840188018A018C018C01097
:10458000C010C008C000C100C200C200C300A30028
:10459000830043002300230823102310231822182C
:1045A00022182118000000000A0B02090C0D0E0849
:1045B00007030401000000000000000000000000EC
:1045C00000000000000000000000000000000000EB
:1045D00000001211100000000000000000000000A8
:1045E0000000000000000000000000000102102098
:1045F0002008081020401020408002010201080419
:1046000002010102040810204080804020100804AC
:104610000201800402018040201008040201080405
:104620000201010204081020408001020408102049
:104630004080050505050705080808080202020272
:104640000A0A08080404040401010101010101012E
:104650000303030303030303040707070C0C0C0CF9
:104660000C0C0C0C020202020606060606060606E2
:104670000B0B0B0B0B0B0B0B000020002300260079
:1046800029002C002F003200000100000301060168
:10469000090100002200250028002B002E00310017
:1046A000340002010000050108010B010000210097
:1046B000240027002A002D003000330001010000F3
:1046C000040107010A0100407A10F35A00A0724E5B
:1046D00018090010A5D4E80000E87648170000E4A7
:1046E0000B54020000CA9A3B000000E1F5050000EF
:1046F00080969800000040420F000000A086010054
:104700000000102700000000E80300000000640023
:10471000000000000A00000000000100000000008E
:104720002C76D888DC674F0823DFC1DFAE59E1B1B2
:10473000B796E5E3E453C63AE651997696E8E6C2C1
:104740008426EB898C9B62ED407C6FFCEFBC9C9FC8
:1047500040F2BAA56FA5F490055A2AF75C936B6CEA
:10476000F9676DC11BFCE0E40D47FEF520E6B500DE
:10477000D0ED902E0300943577050080841E08004C
:1047800000204E0A000000C80C333333330F986EFC
:1047900012831141EF8D2114893BE65516CFFEE6B9
:1047A000DB18D1844B381BF77C1D901DA4BBE4247F
:1047B000203284725E228100C9F124ECA1E53D27FC
:1047C000AC2A2A2E549911241FBECFEFD1E2DEBFAE
:1047D000CDBF00E00CBF14E0A0E0B2E0E8E6FAE4F0
:1047E00001E00BBF02C007900D92AE3CB107D9F7B4
:1047F00027E0AEECB4E001C01D92A73DB207E1F79F
:1048000017E4C6ECD7E400E006C022970109FE01D8
:104810000BBF0E94999FC03CD10780E00807A9F711
:104820000E9498990C9432A50C940000CF93DF93CA
:10483000EC01CB01FB01228133813B832A8344813C
:104840005581668177814C835D836E837F8340854C
:10485000518562857385488759876A877B8728ECED
:1048600032E0398328832DE03C96DE011C960190CE
:104870000D922A95E1F7FC01818D928D9A8F898F97
:10488000DF91CF9108950895EF92FF920F931F93B8
:10489000CF93DF93CDB7DEB728970FB6F894DEBF7E
:1048A0000FBECDBF4B835C83EB80FC8060E576E080
:1048B000C7010E94EF6420E040E060E0C7010E9471
:1048C000BC5C00E010E020E030E04EE057E264E144
:1048D00072E0C7010E94006468ED71E0C7010E94A8
:1048E000EF6420E130E04EE057E26EE172E0C70194
:1048F0000E94006422E330E04EE057E26CE372E095
:10490000C7010E94006428960FB6F894DEBF0FBE60
:10491000CDBFDF91CF911F910F91FF90EF90089540
:104920002F923F924F925F926F927F928F929F92BF
:10493000AF92BF92CF92DF92EF92FF920F931F93AD
:10494000CF93DF93CDB7DEB7C856D1090FB6F89431
:10495000DEBF0FBECDBF26E040E052EC61E070E06C
:1049600086E397E00E948C9865E572E086E397E025
:104970000E941C9A8CE290E00E94A4995C01C12CD8
:10498000D12C59E2E52EF12C08E210E027E230E0CC
:1049900046E250E062E00E942D41B092D304A09222
:1049A000D20462E672E086E397E00E941C9A8BE3F1
:1049B00090E00E94A4995C0162E0E62E03E024E00E
:1049C00045E066E00E947B6AB092D104A092D004D8
:1049D00061E772E086E397E00E941C9A8AE291E028
:1049E0000E94A4997C014091D0045091D10460911F
:1049F000D2047091D3040E941369F092CF04E09224
:104A0000CE0462E872E086E397E00E941C9ACE0131
:104A10008F599F4F0E947A846C962FAF6C976D963A
:104A20003FAF6D976E964FAF6E976F965FAF6F9774
:104A3000A0966FAFA097A1967FAFA1976BE972E0A8
:104A400086E397E00E941C9A84E090E00E94A4997B
:104A5000B82E792EA1966EAD7FADA1970E94F08DF4
:104A60006090D2044090D30461E0862D942D0E9482
:104A7000FD44862D942D0E94FC5B60E576E0862D3A
:104A8000942D0E94EF6461EB72E086E397E00E9450
:104A90001C9A5090D0042090D10461E0852D922D75
:104AA0000E94866A63E0852D922D0E948E6D309063
:104AB000CE04A090CF0464E372E1832D9A2D0E946E
:104AC000216A2B2D6496BFAE649765967FAE65977D
:104AD000462D66966FAE669767964FAE6797652DC3
:104AE00068965FAE689769962FAE69976A963FAEF3
:104AF0006A976B96AFAE6B97372D542D722D832D21
:104B00009A2DC2DE68EE73E080E090E00E9400968D
:104B100064960FAD649765961FAD659766962FAD49
:104B2000669767963FAD679768964FAD68976996A9
:104B30005FAD69976A966FAD6A976B967FAD6B971D
:104B4000CE0101960E946D908AE090E00E94A599A6
:104B50004C012C96BFAE2C972D967FAE2D972E969E
:104B60006FAE2E972F964FAE2F9760965FAE6097E1
:104B700061962FAE619762963FAE62976396AFAE35
:104B8000639784E090E00E94A4996C014B2D572D0F
:104B9000BE016F5F7F4F0E941C9286E290E00E94F0
:104BA000A499A9969FAF8EAFA997CE0101967C01DB
:104BB0002C960FAD2C972D961FAD2D972E962FADC1
:104BC0002E972F963FAD2F9760964FAD60976196C9
:104BD0005FAD619762966FAD629763967FAD6397A5
:104BE000A9968EAD9FADA9970E942A93A9968EADE6
:104BF0009FADA997F401918380832496BFAE24973B
:104C000025967FAE259726966FAE269727964FAEB0
:104C1000279728965FAE289729962FAE29972A9630
:104C20003FAE2A972B96AFAE2B9784E090E00E9480
:104C3000A4996C014B2D572DB7010E9412878EE26B
:104C400090E00E94A499A9969FAF8EAFA997249651
:104C50000FAD249725961FAD259726962FAD269745
:104C600027963FAD279728964FAD289729965FAD99
:104C700029972A966FAD2A972B967FAD2B970E9486
:104C8000178DA9968EAD9FADA997F401938382836A
:104C9000BBAE7CAE6DAE4EAE5FAE21962FAE219711
:104CA00022963FAE22972396AFAE239784E090E002
:104CB0000E94A4996C014B2D572DB7010E94D97207
:104CC00082E592E00E94A499A9969FAF8EAFA99722
:104CD0000BAD1CAD2DAD3EAD4FAD21965FAD219717
:104CE00022966FAD229723967FAD23970E94E27C98
:104CF000A9968EAD9FADA997F40195838483BBAA35
:104D00007CAA6DAA4EAA5FAA28AE39AEAAAE84E0EC
:104D100090E00E94A4996C014B2D572DB7010E9481
:104D2000BE938AE190E00E94A499A9969FAF8EAFAE
:104D3000A9970BA91CA92DA93EA94FA958AD69ADEA
:104D40007AAD0E945A95A9968EAD9FADA997F401B0
:104D500097838683BBA67CA66DA64EA65FA628AACF
:104D600039AAAAAA84E090E00E94A4996C014B2D74
:104D7000572DB7010E945E7E86E290E00E94A499C2
:104D8000A9969FAF8EAFA9970BA51CA52DA53EA5F3
:104D90004FA558A969A97AA90E94C181A9968EAD8B
:104DA0009FADA997F40191878087BBA27CA26DA2D9
:104DB0004EA25FA228A639A6AAA688E090E00E948B
:104DC000A4997C010BA11CA12DA13EA14FA158A526
:104DD00069A57AA50E944784BB8E7C8E6D8E4E8E0F
:104DE0005F8E28A239A2AAA280E290E00E94A49934
:104DF0003C01570175E0C72ED12C74010B8D1C8D21
:104E00002D8D3E8D4F8D58A169A17AA10E941F8ED4
:104E1000C3010E94438FA12CB12CF7018191919184
:104E20007F010E94A699F2E0AF0EB11C8AE0A8169D
:104E3000B10499F7C4010E94A699C859DF4F0FB673
:104E4000F894DEBF0FBECDBFDF91CF911F910F91C0
:104E5000FF90EF90DF90CF90BF90AF909F908F909A
:104E60007F906F905F904F903F902F900895CF93D9
:104E7000DF931F92CDB7DEB76983DC01ED91FC9122
:104E80000280F381E02D41E050E0BE016F5F7F4F73
:104E900019950F90DF91CF910895CF93DF93EC0197
:104EA000898D9A8D009759F0FC01138212820E941D
:104EB000E133E98DFA8D22813381232B31F081E0BA
:104EC00090E09B838A8380E090E0DF91CF9108950A
:104ED000FC01818D928D009711F00C94933108950F
:104EE000CF93DF931F92CDB7DEB741E050E0BE0114
:104EF0006F5F7F4FFBD7019719F4898190E002C063
:104F00008FEF9FEF0F90DF91CF910895FC01818D7E
:104F1000928D009709F0E4CF8FEF9FEF08950F93E4
:104F20001F93CF93DF938C01FC01818D928D0097AD
:104F3000B1F0D6DFEC018F3FFFEF9F0799F0F8014A
:104F4000818D928DFC014285538564857585415024
:104F50005109610971090E94F830CE0105C080E055
:104F600090E002C08FEF9FEFDF91CF911F910F91E3
:104F70000895CF92DF92EF92FF920F931F93CF93FA
:104F8000DF93EC017B016A011B821A8208EE13E0B9
:104F900020E030E00C831D832E833F8388EC92E079
:104FA000998388838DE190E00E94BD9F9A8F898FBD
:104FB000009779F02DE1F701DC0101900D922A951F
:104FC000E1F74CE050E0B601CE010C960E945AA2E7
:104FD000188EDF91CF911F910F91FF90EF90DF908E
:104FE000CF900895FC011382128248EE53E060E0F6
:104FF00070E0448355836683778388EC92E09183E5
:105000008083128E118E148608950C960895DC010B
:105010005996ED91FC915A97309721F081E0958156
:10502000923008F480E00895FC01818D928D009704
:1050300011F00C94F83080E00895DC015996ED9160
:10504000FC915A97309729F0628573858485958500
:1050500008956FEF7FEFCB010895DC015996ED9134
:10506000FC915A97309729F06389748985899689CC
:10507000089560E070E0CB010895CF92DF92EF9247
:10508000FF92CF93DF93EC01898D9A8D892BC9F024
:10509000CE01E3DF6B017C01CE01CFDFA7019601DA
:1050A000261B370B480B590BDA01C901811530E873
:1050B0009307A105B10538F08FEF9FE7A0E0B0E0BE
:1050C00002C080E090E0DF91CF91FF90EF90DF9001
:1050D000CF900895CF93DF93EC01898D9A8D00973F
:1050E00041F00E94D831898D9A8D0E9455A01A8E68
:1050F000198EDF91CF910895DC015996ED91FC91C5
:105100005A97309721F081E09581911101C080E09C
:1051100008950F931F93CF93DF93EC018B0141E030
:105120000E941339811109C040E0B801CE01DF911E
:10513000CF911F910F910C94133981E0DF91CF91A2
:105140001F910F9108950F931F93CF93DF93EC015D
:10515000462F61E08BD3811102C080E011C08E0127
:10516000045F1F4FBE01C801D4DF8823B1F3B8012B
:10517000CE018A966CD691E0811101C090E0892F12
:10518000DF91CF911F910F910895FC01DB011296E1
:105190008D919C911397938382838AED92E0918302
:1051A000808314968C911497848315968C9115970F
:1051B000858316964D915D916D917C9119974683EB
:1051C0005783608771871A964D915D916D917C919F
:1051D0001D9742875387648775871E964D915D9111
:1051E0006D917C91519746875787608B718B529652
:1051F0008C915297828B53964D915D916D917C91DC
:105200005697438B548B658B768B57964D915D915A
:105210006D917C915A97478B508F618F728F5B96FF
:105220008D919C915C97948F838F08954F925F929C
:105230006F927F928F929F92AF92BF92CF92DF92A6
:10524000EF92FF920F931F93CF93DF93CDB7DEB70B
:10525000C754D1090FB6F894DEBF0FBECDBF6C01A5
:105260004A013901665D7F4F5E018EE1A80EB11CD7
:10527000C5018BDF1C821B828AED92E09A838983B1
:105280001E828401FE0131967F015A2C4B2C6FE265
:1052900070E0C8010E943FA20097E9F1F801208167
:1052A0002F3219F40F5F1F4FF2CF801B8D3008F0A3
:1052B0008CE0A82EB12CA501B801CE01CB960E949E
:1052C0005AA2EBE3F0E0EC0FFD1FEA0DFB1D10828C
:1052D000C7010E94D83121E0AE01455C5F4F652DCA
:1052E000742DC7010E940233811109C0F601138297
:1052F00012828AED92E091838083158215C00A0D97
:105300001B1D852D942D0E94D831C2015E2C4F2C7F
:10531000E92EF82EBCCF08191909F3011183008377
:10532000652D742DC60131DFC601C95BDF4F0FB695
:10533000F894DEBF0FBECDBFDF91CF911F910F91CB
:10534000FF90EF90DF90CF90BF90AF909F908F90A5
:105350007F906F905F904F9008959F92AF92BF9211
:10536000CF92DF92EF92FF920F931F93CF93DF9331
:10537000CDB7DEB7C955D1090FB6F894DEBF0FBE61
:10538000CDBF7C016B015A01922E9E01285A3F4FDE
:10539000CE01CB964BDF6A960EAD1FAD6A970A0D14
:1053A0001B1DF8018081811109C0BE01655C7F4F22
:1053B000CE010196EADE44ED52E03DC019A218A2EA
:1053C0008AED92E09F8F8E8F1BA221968FAD219741
:1053D000811103C0C70106DE33C08250823060F401
:1053E000B601665D7F4F292DA801CE014E960E9421
:1053F000023381110FC0EECF292DA801BE01655CDB
:105400007F4FCE014E960E940233882319F3CE01BE
:10541000CB96CED7892D867039F049A95AA96BA9A8
:105420007CA9CE014E96E4D6BE01625E7F4FCE01CE
:105430000196ABDEA801BE016F5F7F4FC70199DD0A
:10544000C701C75ADF4F0FB6F894DEBF0FBECDBFFE
:10545000DF91CF911F910F91FF90EF90DF90CF9050
:10546000BF90AF909F900895DF92EF92FF920F93BD
:105470001F93CF93DF93CDB7DEB7C756D1090FB6D1
:10548000F894DEBF0FBECDBF8C017B01D42EBE01D0
:105490006F5F7F4FF701818D928D2DD61816BCF569
:1054A00089818823A1F1853E91F38E3281F38C8529
:1054B00083FDEDCF22961FAE1EAE22978AED92E0BD
:1054C0009FAF8EAF24961FAE2497BE01655A7F4FC3
:1054D000CE01019666D4F701618D728D2D2DAE013E
:1054E000455A5F4FCE01CE960E940233882379F051
:1054F000BE01625C7F4FCE01819647DEAE01455A08
:105500005F4FBE016F5D7F4FC80133DD02C0C80130
:1055100069DDC801C959DF4F0FB6F894DEBF0FBE71
:10552000CDBFDF91CF911F910F91FF90EF90DF9052
:105530000895CF93DF93EC016ADD882351F0E98D64
:10554000FA8D1682178210861186128613861486AB
:105550001586DF91CF9108951092D9041092DA0444
:105560001092DD041092DF0482E090E0A0E0B0E051
:105570008093E0049093E104A093E204B093E304E9
:105580001092F70410920105109200058AED92E046
:105590009093FF048093FE04109203050895CF9228
:1055A000DF92EF92FF920F9330E0C12CF2E1DF2EF9
:1055B000FAE7EF2EF12C4C155D056E057F0540F4E2
:1055C000F694E794D794C7943F5F3630A1F737E05D
:1055D00041E04327211102C050E701C050E5242FCC
:1055E00030E03595279523700C70202B252BFC017E
:1055F0002083417041830F91FF90EF90DF90CF9017
:10560000089520912C07222381F0213051F42DB3ED
:1056100020932A073DB320912B07209523232DBBF0
:1056200004C02FB720932A07F8948CBD9DBD089520
:105630008EBD00000DB407FEFDCF8EB508958FEF2F
:10564000F7CF90912C07992339F080912A07913058
:1056500011F48DBB08958FBF089561E0FC01848132
:105660000E941E9780911D05882319F010921D0538
:10567000E8CF0895CF93DF93EC0180911D05811150
:1056800008C081E080931D0580911E0590911F0543
:10569000B8DF60E08C81DF91CF910C941E97CF939F
:1056A000DF93EC018E81882379F08F8198859C01AE
:1056B0002F5F3F4F38872F838230924010F4BFDF37
:1056C000F4CFCE01CADF1E82DF91CF9108950F93F0
:1056D000CF93DF931F921F92CDB7DEB7673028F0CC
:1056E00026E1FC01258380E046C06230F9F058F4E1
:1056F0006623A9F0613079F500E021E040E059E04F
:105700006DE370E02EC06430F9F0B8F0653019F543
:1057100000E021E040E950ED63E070E022C000E0ED
:1057200021E040E458E76DE771E01BC000E021E0B4
:1057300040E854E86EE170E014C000E021E040E48D
:1057400052E46FE070E00DC000E021E040E251EA79
:1057500067E070E006C000E021E048E458EE61E058
:1057600070E0CE0101961BDF89819A8190931F051D
:1057700080931E0581E00F900F90DF91CF910F91E4
:1057800008950F931F93CF93DF93EB010E94D19560
:105790008B0155DF8F3F49F00E94D195601B710B43
:1057A0006C177D07B0F380E001C081E0DF91CF91FD
:1057B0001F910F910895CF92DF92FF920F931F9345
:1057C000CF93DF9300D01F92CDB7DEB76C01F62EDA
:1057D00029833A834B835C8362DFC6014BDF6CE233
:1057E00071E0C601CEDF8F2D806422DF08E110E07A
:1057F0005C814B813A812981DA01C901002E04C004
:10580000B695A795979587950A94D2F729833A83F9
:105810004B835C830DDF0850110929813A814B814C
:105820005C81083F8FEF180739F7FF2029F0E8E087
:10583000FE1621F08FEF03C085E901C087E8F8DE8E
:1058400010E0FDDEF601828787FF04C01F3F11F0E4
:105850001F5FF7CF0F900F900F900F90DF91CF91B8
:105860001F910F91FF90DF90CF9008957F928F92BC
:105870009F92AF92BF92CF92DF92EF92FF920F93DF
:105880001F93CF93DF931F921F92CDB7DEB75C01BA
:10589000762EFC01138611861682158244830E949F
:1058A000D1954B0161E0F50184810E94E59661E0AC
:1058B000F50184810E941E970E941C3C00E021E0BB
:1058C00040E950ED63E070E0CE01019668DE898129
:1058D0009A8190931F0580931E0593DE1AE08FEF47
:1058E000A7DE1150E1F7ADDEC501C4DE20E030E0F7
:1058F000A90160E0C5015FDF082FF50182878130D3
:1059000049F00E94D19568197909613D774070F39B
:1059100081E04AC02AEA31E040E050E068E0C50199
:105920004ADF82FF03C0F50103870DC004E087DE74
:10593000F50182870150D9F78A3A11F082E035C02B
:1059400082E0F5018387F5018385823031F4C12C33
:10595000D12CE12CA0E4FA2E03C0C12CD12C76016D
:1059600020E030E0A90167E3C50125DFA70196012A
:1059700069E2C50120DFF5018287882349F00E9492
:10598000D19568197909613D774050F388E00CC0E2
:1059900083858230C1F420E030E0A9016AE3C501CB
:1059A0000ADF882331F086E0F5018583C50155DEE5
:1059B00010C045DE807C803C19F483E0F5018387CC
:1059C0003EDE3DDE3CDEC50148DE672DC5017FDEE3
:1059D000182F812F0F900F90DF91CF911F910F9172
:1059E000FF90EF90DF90CF90BF90AF909F908F90FF
:1059F0007F9008950F931F93CF93DF93EC010E9444
:105A0000D1958B011CDE8A878F3F49F40E94D19586
:105A1000601B710B6D327140A8F38FE003C08E3FA5
:105A200031F08DE08D83CE0118DE80E001C081E091
:105A3000DF91CF911F910F910895CF92DF92EF9256
:105A4000FF920F931F93CF93DF93EC016901011530
:105A5000110509F45DC0C801820F931F8130924087
:105A600008F058C08E81882371F088819981AA81BD
:105A7000BB81481759076A077B0729F48F819885EE
:105A8000C816D90600F5488359836A837B838B85C2
:105A9000833039F0B9E0440F551F661F771FBA9560
:105AA000D1F79A01AB0161E1CE0185DE882319F0BF
:105AB00083E08D832FC0CE019DDF882359F11886A6
:105AC0001F8281E08E838F8198858C159D0538F427
:105AD000B6DD8F819885019698878F83F4CF670113
